:1000000054C0000070C000006EC000006CC0000052
:100010006AC0000068C0000066C0000064C0000044
:1000200062C0000060C000005EC000000C94EC09DB
:100030005AC0000058C0000056C0000054C0000064
:100040000DC4000050C000004EC000004CC00000B5
:1000500077C700000C94940946C0000044C000001B
:1000600042C0000040C000003EC000003CC0000094
:1000700091C700000C94BC0936C0000034C00000D9
:1000800032C0000030C000002EC000002B20746F72
:1000900020696E637265617365202D20746F206422
:1000A000656372656173650D0A0011241FBECFEF91
:1000B000D0E4DEBFCDBF11E0A0E0B1E0ECEEFCE1AA
:1000C00000E00BBF02C007900D92A83EB107D9F720
:1000D00012E0A8EEB1E001C01D92A836B107E1F729
:1000E000E5D30C94740E8CCF809100018F5F8093C8
:1000F00000010895A2E0B0E0E0E8F0E00C945B0BB2
:100100001A8219821A82198289819A8180975CF4F5
:10011000E981FA81E85BFD4F108289819A8101961D
:100120009A838983F1CF2296E2E00C94770B6130B9
:10013000710569F48130910541F028F08230910514
:1001400091F4129A10C05D9A0EC0109A0CC08130C2
:10015000910541F028F08230910529F4129803C0EE
:100160005D9801C01098FC01EE0FFF1FEE5BFD4F84
:100170007183608308959C01220F331FF901EE5BA8
:10018000FD4F408151814130510589F48130910505
:1001900039F020F0029729F4129803C05D9801C04D
:1001A0001098F901EE5BFD4F1182108208958130A5
:1001B000910539F020F0029729F4129A03C05D9A54
:1001C00001C0109AF901EE5BFD4F81E090E0918350
:1001D0008083089582E0BED4811103C00E945E092D
:1001E000F9CF0895A2E0B0E0E8EFF0E00C94530BF3
:1001F0001A8219820E949D0A6093F2017093F301A2
:100200008093F4019093F5011A82198289819A8171
:100210001816190634F089819A8101969A83898388
:10022000F5CF0E949D0A6093EE017093EF018093D9
:10023000F0019093F101C090F201D090F301E090B1
:10024000F401F090F501DC01CB018C199D09AE0998
:10025000BF098093EA019093EB01A093EC01B09366
:10026000ED010E949D0A6093F2017093F301809367
:10027000F4019093F50110923E0210923F02109209
:1002800040021092410280913E0290913F02A09163
:100290004002B09141028D3B9541A105B105A0F40A
:1002A00080913E0290913F02A0914002B0914102A4
:1002B0000196A11DB11D80933E0290933F02A09331
:1002C0004002B0934102DFCF0E949D0A6093EE018D
:1002D0007093EF018093F0019093F10182E090E040
:1002E0004ADF1A82198289819A81843691057CF5C8
:1002F00010923E0210923F02109240021092410270
:1003000080913E0290913F02A0914002B091410243
:100310008D3B9541A105B105A0F480913E029091DD
:100320003F02A0914002B09141020196A11DB11D72
:1003300080933E0290933F02A0934002B09341020B
:10034000DFCF89819A8101969A838983CCCF0E94DD
:100350009D0A6B017C0182E090E00DDF1A82198218
:1003600089819A81843691057CF510923E02109223
:100370003F02109240021092410280913E02909101
:100380003F02A0914002B09141028D3B9541A105F1
:10039000B105A0F480913E0290913F02A0914002ED
:1003A000B09141020196A11DB11D80933E02909330
:1003B0003F02A0934002B0934102DFCF89819A812E
:1003C00001969A838983CCCF95DE8091EE0190913E
:1003D000EF01A091F001B091F101A7019601281B56
:1003E000390B4A0B5B0BCA01B9010E94260A162F72
:1003F000072FB82EA92E6091EE017091EF01809128
:10040000F0019091F101C090F201D090F301E090E1
:10041000F401F090F5016C197D098E099F09C090D7
:10042000EA01D090EB01E090EC01F090ED016C1945
:100430007D098E099F090E94260AAF92BF920F93F1
:100440001F939F938F937F936F9381E491E09F938A
:100450008F931F9280E28F9388E492E09F938F9313
:100460000E94A40B40E268E472E082E05BD7B2DE57
:100470000FB6F894DEBF0FBECDBF2296EAE00C9413
:100480006F0B8091030190910401909387008093FA
:1004900086008091030190910401609101017091A7
:1004A00002010E94150B70938900609388000895E3
:1004B000CF93C82F09D38AE591E01BD38C2F99D213
:1004C00061E080E035D3CD3209F4B7C01CF4CB3203
:1004D000D9F056C1C83419F0C83609F051C188B1F5
:1004E00090E1892788B93C9A40E250E06CE870E0DE
:1004F00088E492E00E949B0B40E268E472E082E0B4
:1005000011D78FE591E097C08091FC019091FD019A
:10051000892BD1F180910F0190911001A0911101CF
:10052000B091120140910B0150910C0160910D01AD
:1005300070910E01840F951FA61FB71F80930B01AA
:1005400090930C01A0930D01B0930E01BF93AF9354
:100550009F938F9389E691E09F938F931F9280E200
:100560008F9388E492E09F938F930E94A40B40E2C4
:1005700068E472E082E0D6D68DB79EB70A960FB6D1
:10058000F8949EBF0FBE8DBF8091FA019091FB0140
:10059000892BD1F180910F0190911001A09111014F
:1005A000B091120140910701509108016091090139
:1005B00070910A01840F951FA61FB71F8093070132
:1005C00090930801A0930901B0930A01BF93AF93E0
:1005D0009F938F938EE791E09F938F931F9280E27A
:1005E0008F9388E492E09F938F930E94A40B40E244
:1005F00068E472E082E096D68DB79EB70A960FB691
:10060000F8949EBF0FBE8DBF20910301309104016D
:100610008091050190910601AC01420F531F4F3F9D
:100620005F4F39F0281B390B3093040120930301ED
:1006300028DF83E991E05DD2B3C08BE991E059D224
:100640008091FC019091FD01892B09F43FC08091BC
:100650000B0190910C01A0910D01B0910E01853616
:100660009105A105B10590F140910F015091100144
:100670006091110170911201841B950BA60BB70BB1
:1006800080930B0190930C01A0930D01B0930E0188
:10069000BF93AF939F938F9383EA91E09F938F9340
:1006A0001F9280E28F9388E492E09F938F930E9441
:1006B000A40B40E268E472E082E034D68DB79EB7C6
:1006C0000A960FB6F8949EBF0FBE8DBF8091FA01B7
:1006D0009091FB01892B09F43FC080910701909113
:1006E0000801A0910901B0910A0185369105A10583
:1006F000B10590F140910F015091100160911101ED
:1007000070911201841B950BA60BB70B8093070108
:1007100090930801A0930901B0930A01BF93AF938E
:100720009F938F9388EB91E09F938F931F9280E22A
:100730008F9388E492E09F938F930E94A40B40E2F2
:1007400068E472E082E0EED58DB79EB70A960FB6E8
:10075000F8949EBF0FBE8DBF80910301909104015C
:100760002091050130910601821B930B893E23E005
:100770009207B0F0909304018093030182DE10C0D1
:1007800029DD80E28C278093480241E068E472E032
:1007900082E0C8D58DEC91E0ACD18091480229D19E
:1007A000CF91089582E0C6D1E091FE018E1781F0CD
:1007B000F0E0E25EFD4F80817BDE8091FE018F31B3
:1007C00019F41092FE01EECF8F5F8093FE01EACF05
:1007D000089582E884BD93E095BD9FEF97BD809317
:1007E00080008DE1809381004CCE6ED182ED91E04E
:1007F00080D161E080E09CD18CED91E07AD140E83D
:1008000055E260E070E082E0ABD440E26EE172E07D
:1008100082E094D380E28AB985E081B960E070E03B
:1008200080E090E084DC60E070E081E090E07FDCDC
:1008300060E070E082E090E07ADCCBDF82E08093E1
:100840006E0078940895009739F0019731F482E0B2
:1008500080936E0078940895F89408951F920F92F3
:100860000FB60F9211242F938F939F938091FF01C6
:10087000909100020196893E23E092072CF4909318
:1008800000028093FF010AC0109200021092FF0143
:1008900081E090E09093E9018093E8019F918F912E
:1008A0002F910F900FBE0F901F9018959EDF9ADC2E
:1008B0008091E8019091E901892B39F01092E901CA
:1008C0001092E80180E090E056DCF8D46BDFEFCFC7
:1008D00081E090E06F9364E06A95F1F76F91019782
:1008E000C9F708950F931F93CF93DF9317B13D98E6
:1008F0002898299AC0E0D0E0EBDF2A9AE9DF06B118
:100900002A98E6DF2A9AE4DF2A98249605FF10C089
:100910009E0140E050E08091050290910602A09176
:100920000702B0910802281739074A075B0720F32E
:100930009E0140E050E08091050290910602A09156
:100940000702B0910802281739074A075B0728F009
:1009500082E390E0A0E0B0E004C080E395E7A0E08F
:10096000B0E08093050290930602A0930702B09333
:10097000080217B9DF91CF911F910F91089528B107
:1009800090E08F709070880F991F880F991F237CBB
:10099000282B28B92A9A9CDF2A989ACFA2E0B0E0A7
:1009A000E3EDF4E085C6182F4A83698359D09ADFB6
:1009B000F7B008B1299869814A81662311F0289A15
:1009C00001C0289887B18C6387B9413021F0812F0D
:1009D00082958F70D4DF812F8F70D1DFF7B808B97F
:1009E0002296E5E081C660E042E0D8CF61E042E0D7
:1009F000D5CFFCCF089560E041E0D0CF3D98459A37
:100A000080E395E7A0E0B0E08093050290930602B2
:100A1000A0930702B0930802209A219A229A8EE1AD
:100A200090E035D583E0E7DF86E090E030D583E0E5
:100A3000E2DF82E090E02BD583E0DDDF82E090E032
:100A400026D582E0D8DF82E090E021D588E2CBDFB6
:100A500088E0C9DF81E0C7DF86E0C5DF8CE0C3CF77
:100A600080910902882321F481E080930902C6CF96
:100A7000089581E0B8DF8091010290910202009711
:100A800011F1A0E0B0E208C0E0910102F091020291
:100A9000E20FF31FB083AF5F2A2F30E08091130184
:100AA00090E001976091140170E0869FA001879FFC
:100AB000500D969F500D1124241735072CF31092DA
:100AC0000402109203020895D4CF0895EF92FF928A
:100AD000CF93DF93E82EE7017E01F92EE70101C0F5
:100AE00085DF89918823E1F7DF91CF91FF90EF9027
:100AF0000895ECCF0895A5E0B0E0E0E8F5E0DAC5B0
:100B0000182F80E8898380EC8A8384E98B8384EDC5
:100B10008C83FE01E60FF11D8181810F6D8363DF00
:100B2000109304026D81609303022596E3E0DEC515
:100B3000E2CF0895282F30E0F901EE0FFF1F43E0C8
:100B4000220F331F4A95E1F7E20FF31FEB5EFE4FD2
:100B500082810895282F30E0F901EE0FFF1F73E026
:100B6000220F331F7A95E1F7E20FF31FEB5EFE4F82
:100B70004181282F30E0F901EE0FFF1F53E0220FD3
:100B8000331F5A95E1F7E20FF31FEB5EFE4F81E052
:100B90009381491380E00895282F30E0F901EE0F8A
:100BA000FF1FB3E0220F331FBA95E1F7E20FF31FE7
:100BB000EB5EFE4F408551854115510509F452C049
:100BC000282F30E0F901EE0FFF1F73E0220F331FD3
:100BD0007A95E1F7E20FF31FEB5EFE4F7281282F4B
:100BE00030E0F901EE0FFF1FB3E0220F331FBA957B
:100BF000E1F7E20FF31FEB5EFE4F9481791790F55A
:100C0000282F30E0F901EE0FFF1F73E0220F331F92
:100C10007A95E1F7E20FF31FEB5EFE4F9281490FE9
:100C2000511DFA016083282F30E0F901EE0FFF1FFC
:100C300053E0220F331F5A95E1F7E20FF31FEB5EEB
:100C4000FE4F92819F5F282F30E0F901EE0FFF1FCA
:100C5000B3E0220F331FBA95E1F7E20FF31FEB5E0B
:100C6000FE4F9283282F30E0F901EE0FFF1F73E053
:100C7000220F331F7A95E1F7E20FF31FEB5EFE4F71
:100C80004281282F30E0F901EE0FFF1F53E0220FC1
:100C9000331F5A95E1F7E20FF31FEB5EFE4F94818D
:100CA000491701F5282F30E0F901EE0FFF1F93E0FF
:100CB000220F331F9A95E1F7E20FF31FEB5EFE4F11
:100CC0009581992379F0282F30E0F901EE0FFF1F6D
:100CD000B3E0220F331FBA95E1F7E20FF31FEB5E8B
:100CE000FE4F128208950F931F93182F823009F43C
:100CF00074C0882319F4E1ECF0E002C0E9ECF0E004
:100D000080818F778083812F90E0FC01EE0FFF1FA1
:100D100003E0880F991F0A95E1F7E80FF91FEB5ED2
:100D2000FE4F808591850097A1F1212F30E0F901D8
:100D3000EE0FFF1FA3E0220F331FAA95E1F7E20F8A
:100D4000F31FEB5EFE4F9281212F30E0F901EE0F91
:100D5000FF1F63E0220F331F6A95E1F7E20FF31FD5
:100D6000EB5EFE4F84819817A0F4112319F4E0EC98
:100D7000F0E002C0E8ECF0E0808187FF0AC01123B8
:100D800019F4E6ECF0E002C0EEECF0E06081812FB7
:100D900003DF212F30E0F901EE0FFF1F43E0220FA8
:100DA000331F4A95E1F7E20FF31FEB5EFE4F8081A0
:100DB000882309F057C0112319F4E1ECF0E002C0D8
:100DC000E9ECF0E08081806880834CC080912E0146
:100DD000882319F010922B0145C080913101909128
:100DE0003201009709F43EC090912B0180912D01B2
:100DF0009817C0F580910A02882399F4A3D38093B1
:100E00000A0210E00AC09BD3E02FF0E03197E11B0B
:100E1000F109E55FFD4F80831F5F00910A02101703
:100E200090F3A0910A02AA23E9F080912B01E091AE
:100E30003101F0913201E80FF11DA150A0930A0297
:100E4000B0E0A55FBD4F8C91808380912B018F5FB7
:100E500080932B0190912B0180912D01981709F01F
:100E6000BCCFB4CF1F910F910895823051F08823E9
:100E700019F4E1ECF0E002C0E9ECF0E090819F773A
:100E80009083A82FB0E0FD01EE0FFF1F53E0AA0FE3
:100E9000BB1F5A95E1F7EA0FFB1FEB5EFE4F718710
:100EA0006087682F70E0FB01EE0FFF1F93E0660F75
:100EB000771F9A95E1F7E60FF71FEB5EFE4F128260
:100EC000682F70E0FB01EE0FFF1FA3E0660F771F96
:100ED000AA95E1F7E60FF71FEB5EFE4F4483482F1C
:100EE00050E0FA01EE0FFF1F63E0440F551F6A95B3
:100EF000E1F7E40FF51FEB5EFE4F25838230D9F05A
:100F0000282F30E0F901EE0FFF1F43E0220F331FBF
:100F10004A95E1F7E20FF31FEB5EFE4F90819923B4
:100F200051F4882319F4E1ECF0E002C0E9ECF0E0C0
:100F3000808180688083089521E097CFFDCF089558
:100F40001F920F920FB60F920BB60F9211242F9390
:100F50003F934F935F936F937F938F939F93AF9341
:100F6000BF93EF93FF936091C60080E015DEFF9181
:100F7000EF91BF91AF919F918F917F916F915F9111
:100F80004F913F912F910F900BBE0F900FBE0F907E
:100F90001F9018951F920F920FB60F920BB60F92DB
:100FA00011242F933F934F935F936F937F938F936E
:100FB0009F93AF93BF93EF93FF936091CE0081E037
:100FC000EBDDFF91EF91BF91AF919F918F917F9159
:100FD0006F915F914F913F912F910F900BBE0F90AA
:100FE0000FBE0F901F901895882319F4E1ECF0E0E4
:100FF00002C0E9ECF0E0808180628083089588235C
:1010000019F4E1ECF0E002C0E9ECF0E080818F7DC2
:1010100080830895282F30E0F901EE0FFF1F93E041
:10102000220F331F9A95E1F7E20FF31FEB5EFE4F9D
:10103000268137812115310591F1282F30E0F90102
:10104000EE0FFF1FA3E0220F331FAA95E1F7E20F77
:10105000F31FEB5EFE4F4181282F30E0F901EE0FC8
:10106000FF1F63E0220F331F6A95E1F7E20FF31FC2
:10107000EB5EFE4F9381491790F4282F30E0F90181
:10108000EE0FFF1F43E0220F331F4A95E1F7E20FF7
:10109000F31FEB5EFE4F9081992309F4A5CFAFCFEC
:1010A000823029F1282F30E0F901EE0FFF1F53E0C5
:1010B000220F331F5A95E1F7E20FF31FEB5EFE4F4D
:1010C0009081992349F4882319F4E1ECF0E002C0FF
:1010D000E9ECF0E098E908C0882319F4E1ECF0E0CD
:1010E00002C0E9ECF0E098E1908394DF78940895F1
:1010F000882319F0813029F402C080E0D1CF81E04B
:10110000CFCF0895A0E0B0E0E7E8F8E0CFC2D82E56
:101110007A018B01EDDF8D2D8230F1F0DD2019F4A5
:10112000C4ECD0E002C0CCECD0E0C801B70128EF9D
:101130003FEF4FEF5FEF6AD26050734D8E4C9E4F82
:10114000A8019701E4E0220F331F441F551FEA95C1
:10115000D1F77FD239832883CDB7DEB7E7E0C2C2AB
:10116000D1CF0895282F30E0F901EE0FFF1F73E073
:10117000220F331F7A95E1F7E20FF31FEB5EFE4F6C
:10118000468157814115510509F465C0282F30E08B
:10119000F901EE0FFF1F93E0220F331F9A95E1F73D
:1011A000E20FF31FEB5EFE4F6181282F30E0F90163
:1011B000EE0FFF1FA3E0220F331FAA95E1F7E20F06
:1011C000F31FEB5EFE4F9381691708F044C088233C
:1011D00019F4E0ECF0E002C0E8ECF0E0908195FF5B
:1011E0003AC0882319F4A6ECB0E002C0AEECB0E03F
:1011F000282F30E0F901EE0FFF1F63E0220F331FAD
:101200006A95E1F7E20FF31FEB5EFE4F9181490F04
:10121000511DFA0190819C93282F30E0F901EE0FC7
:10122000FF1F93E0220F331F9A95E1F7E20FF31FA0
:10123000EB5EFE4F91819F5F282F30E0F901EE0FAA
:10124000FF1FA3E0220F331FAA95E1F7E20FF31F60
:10125000EB5EFE4F9183DECE1F93182F823021F07C
:10126000CEDE812F7FDF1CC080912F019091300155
:101270000097B1F030912A0120912C01321780F4AF
:1012800006C080912A018F5F80932A01EDCF2091C3
:101290002A01820F911DFC01808158D1882389F792
:1012A0001F91089580E0D8DF81E0D6DF82E0D4DFAF
:1012B00080E019DD81E017DD82E015CDF3CF0895E0
:1012C000282F30E0F901EE0FFF1F93E0220F331FAC
:1012D0009A95E1F7E20FF31FEB5EFE4F778366838B
:1012E000282F30E0F901EE0FFF1FA3E0220F331F7C
:1012F000AA95E1F7E20FF31FEB5EFE4F1182282F54
:1013000030E0F901EE0FFF1F63E0220F331F6A95F3
:10131000E1F7E20FF31FEB5EFE4F4383823009F0EB
:1013200079CE0895CDCF08951F920F920FB60F92E8
:101330000BB60F9211242F933F934F935F936F93AC
:101340007F938F939F93AF93BF93EF93FF9380E02F
:1013500009DFFF91EF91BF91AF919F918F917F91A5
:101360006F915F914F913F912F910F900BBE0F9016
:101370000FBE0F901F9018951F920F920FB60F92ED
:101380000BB60F9211242F933F934F935F936F935C
:101390007F938F939F93AF93BF93EF93FF9381E0DE
:1013A000E1DEFF91EF91BF91AF919F918F917F917E
:1013B0006F915F914F913F912F910F900BBE0F90C6
:1013C0000FBE0F901F9018956F9364E06A95F1F728
:1013D0006F910197C9F708952F928F939F932FB61E
:1013E00080911402909115020196809314029093BB
:1013F000150290E080911602891F80931602909149
:101400001C029C5F90931C0280911B0280519742AA
:10141000C0F090931C0280931B0280911702909160
:1014200018020196809317029093180290E0809121
:101430001902891F8093190280911A02891F8093D3
:101440001A022FBE9F918F912F9018950F931F9383
:101450006F5F7F4F8F4F9F4F660F771F881F991FBA
:1014600025E030E040E050E0F4D0B901CA011F911E
:101470000F910895CF93DF93EC0104C088EE93E0C1
:10148000A3DF21972097D1F7DF91CF910895F2CF75
:101490000895E0E7F0E080818E7F8083A0EBB0E0EC
:1014A0008C9183608C93A1EBB0E08C91807F8C93C6
:1014B0008C9182608C93B89A8081816080837894CB
:1014C000089580911D02882321F481E080931D02FC
:1014D000E0CF0895F6DF809170008E7F80937000DA
:1014E0002091B2008091130290911402A0911502F4
:1014F000B0911602B89904C030E040E050E011C04D
:101500008091B20020911302309114024091150293
:101510005091160220503F4F4F4F5F4F90E0A0E098
:10152000B0E0282B392B4A2B5B2B80917000816017
:1015300080937000B901CA010895CCCF08958FEF50
:1015400064E041C083E867E03ED0F9CF1F93182FD5
:10155000982F9095991F9927991F85E8891B65E019
:1015600032D0812F8F7765E02ED01F9108956F9331
:1015700064E06A95F1F76F910197C9F70895A1E0CA
:10158000B0E0E4ECFAE096C0182F249908C02C993A
:1015900006C02C9A8EE190E06983E9DF698184B10D
:1015A000806A84B92698812F837080656C7A862B37
:1015B0008CBD81E012FF80E08DBD81E090E05ADFBC
:1015C0002196E3E093C00F931F93082F162F0CB4BE
:1015D00006FC03C080E064E0D2DF0CB404FC03C06E
:1015E0008CB580618CBD0EBD03C00CB404FE0AC076
:1015F0000DB407FEFACF112319F0812F90E0B7DF69
:101600008EB501C080E01F910F910895DB018F938B
:101610009F9378D0BF91AF91A29F800D911DA39F02
:10162000900DB29F900D11240895AA1BBB1B51E190
:1016300007C0AA1FBB1FA617B70710F0A61BB70B42
:10164000881F991F5A95A9F780959095BC01CD01E7
:101650000895A1E21A2EAA1BBB1BFD010DC0AA1FF3
:10166000BB1FEE1FFF1FA217B307E407F50720F00B
:10167000A21BB30BE40BF50B661F771F881F991F86
:101680001A9469F760957095809590959B01AC01CF
:10169000BD01CF0108952F923F924F925F926F92BA
:1016A0007F928F929F92AF92BF92CF92DF92EF92F2
:1016B000FF920F931F93CF93DF93CDB7DEB7CA1B73
:1016C000DB0B0FB6F894DEBF0FBECDBF09942A889E
:1016D000398848885F846E847D848C849B84AA8446
:1016E000B984C884DF80EE80FD800C811B81AA81D3
:1016F000B981CE0FD11D0FB6F894DEBF0FBECDBF9E
:10170000ED01089509D0A59F900DB49F900DA49F61
:10171000800D911D11240895A29FB001B39FC001B7
:10172000A39F700D811D1124911DB29F700D811D0D
:101730001124911D0895FB01DC0102C005900D925A
:1017400041505040D8F708950F931F93CF93DF93E4
:10175000CDB7DEB72E970FB6F894DEBF0FBECDBF64
:101760000D891E898F89988D26E02C831A83098321
:1017700097FF02C080E090E801979E838D83AE01C1
:10178000455E5F4F698D7A8DCE01019619D04D81EE
:101790005E8157FD0AC02F813885421753070CF42C
:1017A0009A01F801E20FF31F10822E960FB6F894FB
:1017B000DEBF0FBECDBFDF91CF911F910F91089576
:1017C0002F923F924F925F926F927F928F929F9251
:1017D000AF92BF92CF92DF92EF92FF920F931F933F
:1017E000CF93DF93CDB7DEB72C970FB6F894DEBF5B
:1017F0000FBECDBF7C016B018A01FC0117821682EE
:10180000838181FFB0C1CE0101964C01F701938124
:10181000F60193FD859193FF81916F01882309F46F
:101820009EC1853239F493FD859193FF81916F01BB
:10183000853221F4B70190E0C7D1E8CF512C312C8B
:1018400020E02032A0F48B3269F030F4803259F07D
:10185000833269F420612CC08D3239F0803339F441
:10186000216026C02260246023C0286021C027FD9B
:1018700027C030ED380F3A3078F426FF06C0FAE082
:101880005F9E300D1124532E13C08AE0389E300D18
:101890001124332E20620CC08E3221F426FD5FC14C
:1018A000206406C08C3611F4206802C0883641F4EA
:1018B000F60193FD859193FF81916F018111C1CF55
:1018C000982F9F7D9554933028F40C5F1F4FFFE3B2
:1018D000F9830DC0833631F0833771F0833509F019
:1018E00057C021C0F801808189830E5F1F4F4424B7
:1018F0004394512C540114C03801F2E06F0E711C56
:10190000F801A080B18026FF03C0652D70E002C001
:101910006FEF7FEFC5012C874CD12C0183012C8503
:101920002F77222E16C03801F2E06F0E711CF801DD
:10193000A080B18026FF03C0652D70E002C06FEF6C
:101940007FEFC5012C872AD12C012C852068222EFF
:10195000830123FC19C0832D90E048165906A0F49A
:10196000B70180E290E030D13A94F5CFF50127FC41
:10197000859127FE81915F01B70190E025D131105B
:101980003A94F1E04F1A51084114510479F7DEC03E
:10199000843611F0893631F5F80127FF07C06081E0
:1019A0007181828193810C5F1F4F08C060817181BA
:1019B000882777FD8095982F0E5F1F4F2F76B22EC8
:1019C00097FF09C090958095709561957F4F8F4FD7
:1019D0009F4F2068B22E2AE030E0A40127D1A82E24
:1019E000A81843C0853729F42F7EB22E2AE030E0B4
:1019F00025C0F22FF97FBF2E8F36C1F018F488353D
:101A000079F0ADC0803719F0883721F0A8C02F2FAA
:101A10002061B22EB4FE0DC08B2D8460B82E09C09B
:101A200024FF0AC09F2F9660B92E06C028E030E040
:101A300005C020E130E002C020E132E0F801B7FE4D
:101A400007C060817181828193810C5F1F4F06C046
:101A50006081718180E090E00E5F1F4FA401E6D0AD
:101A6000A82EA818FB2DFF77BF2EB6FE0BC02B2D7E
:101A70002E7FA51450F4B4FE0AC0B2FC08C02B2D72
:101A80002E7E05C07A2C2B2D03C07A2C01C0752C1C
:101A900024FF0DC0FE01EA0DF11D8081803311F499
:101AA000297E09C022FF06C07394739404C0822F5C
:101AB000867809F0739423FD12C020FF06C05A2CCB
:101AC000731418F4530C5718732C731460F4B70183
:101AD00080E290E02C8778D073942C85F6CF731435
:101AE00010F4371801C0312C24FF11C0B70180E376
:101AF00090E02C8769D02C8522FF16C021FF03C0FF
:101B000088E590E002C088E790E0B7010CC0822F22
:101B1000867851F021FD02C080E201C08BE227FDF2
:101B20008DE2B70190E050D0A51430F4B70180E306
:101B300090E04AD05A94F8CFAA94F401EA0DF11D2E
:101B40008081B70190E040D0A110F6CF332009F496
:101B50005DCEB70180E290E037D03A94F7CFF7013D
:101B60008681978102C08FEF9FEF2C960FB6F89475
:101B7000DEBF0FBECDBFDF91CF911F910F91FF90C0
:101B8000EF90DF90CF90BF90AF909F908F907F901D
:101B90006F905F904F903F902F900895FC010590BB
:101BA000615070400110D8F7809590958E0F9F1F5F
:101BB0000895FC016150704001900110D8F78095A4
:101BC00090958E0F9F1F08950F931F93CF93DF93D0
:101BD000182F092FEB018B8181FD03C08FEF9FEF41
:101BE00020C082FF10C04E815F812C813D81421751
:101BF00053077CF4E881F9819F012F5F3F4F3983C0
:101C00002883108306C0E885F985812F0995892BE3
:101C100029F72E813F812F5F3F4F3F832E83812FF6
:101C2000902FDF91CF911F910F910895FA01AA276C
:101C3000283051F1203181F1E8946F936E7F6E5F0F
:101C40007F4F8F4F9F4FAF4FB1E03ED0B4E03CD0BD
:101C5000670F781F891F9A1FA11D680F791F8A1FA0
:101C6000911DA11D6A0F711D811D911DA11D20D007
:101C700009F468943F912AE0269F11243019305DC1
:101C80003193DEF6CF010895462F4770405D4193B2
:101C9000B3E00FD0C9F7F6CF462F4F70405D4A33FF
:101CA00018F0495D31FD4052419302D0A9F7EACFC7
:101CB000B4E0A6959795879577956795BA95C9F7F6
:101CC00000976105710508959B01AC010A2E0694E9
:101CD0005795479537952795BA95C9F7620F731FA2
:0C1CE000841F951FA01D0895F894FFCFED
:101CEC0001020050C3F401F4010000F401000032C1
:101CFC0000000002100000000000000000000000C6
:101D0C0000000000000000000001000000000000C6
:101D1C00000000FFFFFFFFFFFFFFFF000068022035
:101D2C000031306D733A20256C7575732C2031732E
:101D3C003A20256C7575730D0A0052583A200068CC
:101D4C00656C702074657874002B206C6564206F52
:101D5C006E652074696D6520256C750D0A002B204D
:101D6C006C65642074776F2074696D6520256C75C3
:101D7C000D0A002B2054696D6521002D2054696DCE
:101D8C006521002D206C6564206F6E652074696D73
:101D9C006520256C750D0A002D206C656420747708
:101DAC006F2074696D6520256C750D0A0054583AC6
:101DBC0020004D53534520323031350074726F7A08
:081DCC00796D6F74746F000063
:00000001FF
