:1000000054C0000070C000006EC000006CC0000052
:100010006AC0000068C0000066C0000064C0000044
:1000200062C0000060C000005EC000000C94A50922
:100030005AC0000058C0000056C0000054C0000064
:1000400050C2000050C000004EC000004CC0000074
:1000500030C700000C944D0946C0000044C00000A9
:1000600042C0000040C000003EC000003CC0000094
:100070004AC700000C94750936C0000034C0000067
:1000800032C0000030C000002EC000002B20746F72
:1000900020696E637265617365202D20746F206422
:1000A000656372656173650D0A0011241FBECFEF91
:1000B000D0E4DEBFCDBF11E0A0E0B1E0EAE8FCE1B2
:1000C00000E00BBF02C007900D92AE3DB107D9F71B
:1000D00012E0AEEDB1E001C01D92A735B107E1F726
:1000E00039D20C94430E8CCF809100018F5F8093A6
:1000F000000108958130910511F45B9A01C05B986D
:100100009093E1018093E00108958091E001909146
:10011000E101019719F480E090E002C081E090E0F5
:10012000E9CF8130910511F4599801C0599A909303
:10013000DF018093DE0108958091DE019091DF015F
:10014000019719F480E090E002C081E090E0E9CFEF
:1001500082E0B9D4811103C00E941709F9CF089534
:100160008091030190910401909387008093860011
:10017000809103019091040160910101709102014D
:100180000E94E40A70938900609388000895CF93D9
:10019000C82F93D381E491E0A5D38C2F23D361E0C2
:1001A00080E0BFD3CD3209F4B9C01CF4CB32E1F00A
:1001B00058C1C83419F0C83609F053C188B190E16C
:1001C000892788B93C9A40E250E06CE870E087E308
:1001D00092E00E946A0B40E267E372E082E00E94D4
:1001E0004B0986E491E098C08091E4019091E5018B
:1001F000892BD9F180910F0190911001A0911101EB
:10020000B091120140910B0150910C0160910D01D0
:1002100070910E01840F951FA61FB71F80930B01CD
:1002200090930C01A0930D01B0930E01BF93AF9377
:100230009F938F9380E591E09F938F931F9280E22D
:100240008F9387E392E09F938F930E94730B40E21A
:1002500067E372E082E00E944B098DB79EB70A9671
:100260000FB6F8949EBF0FBE8DBF8091E2019091B2
:10027000E301892BD1F180910F0190911001A091A0
:100280001101B09112014091070150910801609154
:10029000090170910A01840F951FA61FB71F809353
:1002A000070190930801A0930901B0930A01BF933D
:1002B000AF939F938F9385E691E09F938F931F92C7
:1002C00080E28F9387E392E09F938F930E94730B5A
:1002D00040E267E372E082E0DED78DB79EB70A9610
:1002E0000FB6F8949EBF0FBE8DBF209103013091D1
:1002F00004018091050190910601AC01420F531F4A
:100300004F3F5F4F39F0281B390B30930401209386
:10031000030126DF8AE791E0E5D2B3C082E891E0ED
:10032000E1D28091E4019091E501892B09F43FC06D
:1003300080910B0190910C01A0910D01B0910E01E3
:1003400085369105A105B10590F140910F015091BD
:1003500010016091110170911201841B950BA60B85
:10036000B70B80930B0190930C01A0930D01B093F8
:100370000E01BF93AF939F938F938AE891E09F9371
:100380008F931F9280E28F9387E392E09F938F93E6
:100390000E94730B40E267E372E082E07CD78DB786
:1003A0009EB70A960FB6F8949EBF0FBE8DBF809180
:1003B000E2019091E301892B09F43FC0809107018C
:1003C00090910801A0910901B0910A01853691052B
:1003D000A105B10590F140910F015091100160917C
:1003E000110170911201841B950BA60BB70B809322
:1003F000070190930801A0930901B0930A01BF93EC
:10040000AF939F938F938FE991E09F938F931F9268
:1004100080E28F9387E392E09F938F930E94730B08
:1004200040E267E372E082E036D78DB79EB70A9666
:100430000FB6F8949EBF0FBE8DBF809103019091BF
:1004400004012091050130910601821B930B893E26
:1004500023E09207B0F0909304018093030180DEC3
:1004600010C076DE80E28C278093370241E067E39C
:1004700072E082E010D784EB91E034D280913702B1
:10048000B1D1CF91089582E00ED3E091E6018E17AD
:1004900081F0F0E0ED5EFD4F808179DE8091E60134
:1004A0008F3119F41092E601EECF8F5F8093E60151
:1004B000EACF089582E884BD93E095BD9FEF97BD94
:1004C000809380008DE1809381004ACE009739F0BF
:1004D000019731F482E080936E0078940895F89447
:1004E00008951F920F920FB60F9211240BB60F9220
:1004F0002F933F934F935F936F937F938F939F932C
:10050000AF93BF93EF93FF938091E7019091E80140
:100510000196893E23E092072CF49093E8018093A2
:10052000E70105C01092E8011092E70105DEFF9196
:10053000EF91BF91AF919F918F917F916F915F915B
:100540004F913F912F910F900BBE0F900FBE0F90C8
:100550001F901895A0E0B0E0E0EBF2E00C941C0BCB
:10056000ACD189EB91E0BED161E080E0DAD185ECDD
:1005700091E0B8D140E855E260E070E082E0A9D5B2
:1005800040E263E172E082E092D48AB18A628AB981
:1005900080E090E0AFDD80E090E0C3DD8BDF82E0C3
:1005A00080936E007894C0EDD1E080E2882E07E35E
:1005B00012E0AA24A394B12C8FD72B013C0180E038
:1005C00090E0DC010196A11DB11D863B24E4920759
:1005D000A105B105B8F38093330290933402A09340
:1005E0003502B093360278D76B017C016419750926
:1005F00086099709E4D69F938F937F936F93DF9338
:10060000CF931F928F921F930F930E94730B40E220
:1006100067E372E082E03FD60AD68CE242D2982E9F
:100620008DB79EB70A960FB6F8949EBF0FBE8DBFCA
:1006300094E0991212C08091E4019091E501019734
:1006400041F41092E5011092E40180E090E069DD50
:1006500004C0B092E501A092E4012091E401309140
:10066000E5012130310541F402D764157505860591
:10067000970510F04ADDFBD620E2921212C080915D
:10068000E2019091E301019741F41092E30110928D
:10069000E20180E090E045DD04C0B092E301A09269
:1006A000E2018091E2019091E301019741F4DFD6EC
:1006B0006C157D058E059F0510F03EDDD8D6E3DE76
:1006C0007BCF81E090E06F9364E06A95F1F76F91E2
:1006D0000197C9F708950F931F93CF93DF9317B135
:1006E0003D982898299AC0E0D0E0EBDF2A9AE9DF0C
:1006F00006B12A98E6DF2A9AE4DF2A98249605FFB5
:1007000010C09E0140E050E08091ED019091EE011B
:10071000A091EF01B091F001281739074A075B0754
:1007200020F39E0140E050E08091ED019091EE01B8
:10073000A091EF01B091F001281739074A075B0734
:1007400028F082E390E0A0E0B0E004C080E395E709
:10075000A0E0B0E08093ED019093EE01A093EF0153
:10076000B093F00117B9DF91CF911F910F910895C8
:1007700028B190E08F709070880F991F880F991F93
:10078000237C282B28B92A9A9CDF2A989ACFA2E0AA
:10079000B0E0ECECF3E05BC7182F4A83698359D0D3
:1007A0009ADFF7B008B1299869814A81662311F070
:1007B000289A01C0289887B18C6387B9413021F00D
:1007C000812F82958F70D4DF812F8F70D1DFF7B8A2
:1007D00008B92296E5E057C760E042E0D8CF61E073
:1007E00042E0D5CFFCCF089560E041E0D0CF3D9806
:1007F000459A80E395E7A0E0B0E08093ED01909307
:10080000EE01A093EF01B093F001209A219A229A71
:100810008EE190E0F5D583E0E7DF86E090E0F0D56B
:1008200083E0E2DF82E090E0EBD583E0DDDF82E091
:1008300090E0E6D582E0D8DF82E090E0E1D588E282
:10084000CBDF88E0C9DF81E0C7DF86E0C5DF8CE071
:10085000C3CF8091F101882321F481E08093F101DD
:10086000C6CF089581E0B8DF8091E9019091EA0157
:10087000009711F1A0E0B0E208C0E091E901F09129
:10088000EA01E20FF31FB083AF5F2A2F30E08091BF
:10089000130190E001976091140170E0869FA00120
:1008A000879F500D969F500D1124241735072CF368
:1008B0001092EC011092EB010895D4CF0895EF92BD
:1008C000FF92CF93DF93E82EE7017E01F92EE70137
:1008D00001C085DF89918823E1F7DF91CF91FF90F7
:1008E000EF900895ECCF0895A5E0B0E0E9E7F4E0DB
:1008F000B0C6182F80E8898380EC8A8384E98B83D3
:1009000084ED8C83FE01E60FF11D8181810F6D83E3
:1009100063DF1093EC016D816093EB012596E3E0BA
:10092000B4C6E2CF089587B1837D87B988B18C6260
:1009300088B985E090E06F9364E06A95F1F76F9174
:100940000197C9F708958091F201882321F481E08D
:100950008093F201E8CF0895BF92CF92DF92EF9299
:10096000FF920F931F93B82EC6B0DC2CD0947FD586
:100970007B018C01E8DF8091FE01813021F1813023
:1009800038F0823009F445C0833009F081C063C07B
:100990002B2D30E04D2D50E04095509524233523EC
:1009A0002115310509F474C0CB20C092F901E09201
:1009B000FA01F092FB010093FC011093FD0181E02C
:1009C0008093FE0165C08091FA019091FB01A09196
:1009D000FC01B091FD01E81AF90A0A0B1B0B8FE02C
:1009E000E816F1040105110508F452C04091F9011F
:1009F0008D2D90E080959095242F30E082239323D5
:100A0000009731F182E08093FE01C422C092F90187
:100A10003FC04091F9018D2D842371F093E09093B4
:100A2000FE018093F901E092FA01F092FB0100933C
:100A3000FC011093FD012CC050E08B2D90E02D2D7A
:100A400030E020953095822393234817590701F110
:100A50001092FE011DC08091FA019091FB01A091BE
:100A6000FC01B091FD01E81AF90A0A0B1B0B8FE09B
:100A7000E816F1040105110558F08091F9018D2166
:100A800019F01092FE0105C092E09093FE0101C0A2
:100A900080E01F910F91FF90EF90DF90CF90BF907B
:100AA00008955ACF0895282F30E0F901EE0FFF1F67
:100AB00043E0220F331F4A95E1F7E20FF31FEB5E8D
:100AC000FE4F82810895282F30E0F901EE0FFF1FBD
:100AD00073E0220F331F7A95E1F7E20FF31FEB5E0D
:100AE000FE4F4181282F30E0F901EE0FFF1F53E048
:100AF000220F331F5A95E1F7E20FF31FEB5EFE4F13
:100B000081E09381491380E00895282F30E0F901B6
:100B1000EE0FFF1FB3E0220F331FBA95E1F7E20F8C
:100B2000F31FEB5EFE4F408551854115510509F4D9
:100B300052C0282F30E0F901EE0FFF1F73E0220FA3
:100B4000331F7A95E1F7E20FF31FEB5EFE4F7281E0
:100B5000282F30E0F901EE0FFF1FB3E0220F331F03
:100B6000BA95E1F7E20FF31FEB5EFE4F9481791720
:100B700090F5282F30E0F901EE0FFF1F73E0220FF0
:100B8000331F7A95E1F7E20FF31FEB5EFE4F928180
:100B9000490F511DFA016083282F30E0F901EE0F53
:100BA000FF1F53E0220F331F5A95E1F7E20FF31FA7
:100BB000EB5EFE4F92819F5F282F30E0F901EE0F30
:100BC000FF1FB3E0220F331FBA95E1F7E20FF31FC7
:100BD000EB5EFE4F9283282F30E0F901EE0FFF1FEE
:100BE00073E0220F331F7A95E1F7E20FF31FEB5EFC
:100BF000FE4F4281282F30E0F901EE0FFF1F53E036
:100C0000220F331F5A95E1F7E20FF31FEB5EFE4F01
:100C10009481491701F5282F30E0F901EE0FFF1FED
:100C200093E0220F331F9A95E1F7E20FF31FEB5E7B
:100C3000FE4F9581992379F0282F30E0F901EE0FCE
:100C4000FF1FB3E0220F331FBA95E1F7E20FF31F46
:100C5000EB5EFE4F128208950F931F93182F823080
:100C600009F474C0882319F4E1ECF0E002C0E9EC67
:100C7000F0E080818F778083812F90E0FC01EE0F80
:100C8000FF1F03E0880F991F0A95E1F7E80FF91F8E
:100C9000EB5EFE4F808591850097A1F1212F30E01A
:100CA000F901EE0FFF1FA3E0220F331FAA95E1F712
:100CB000E20FF31FEB5EFE4F9281212F30E0F9012E
:100CC000EE0FFF1F63E0220F331F6A95E1F7E20F7B
:100CD000F31FEB5EFE4F84819817A0F4112319F4E3
:100CE000E0ECF0E002C0E8ECF0E0808187FF0AC0B1
:100CF000112319F4E6ECF0E002C0EEECF0E06081C4
:100D0000812F03DF212F30E0F901EE0FFF1F43E0B9
:100D1000220F331F4A95E1F7E20FF31FEB5EFE4F00
:100D20008081882309F057C0112319F4E1ECF0E029
:100D300002C0E9ECF0E08081806880834CC0809143
:100D40002E01882319F010922B0145C080913101AA
:100D500090913201009709F43EC090912B0180914F
:100D60002D019817C0F58091FF01882399F4B9D31C
:100D70008093FF0110E00AC0B1D3E02FF0E031977B
:100D8000E11BF109E050FE4F80831F5F0091FF01DE
:100D9000101790F3A091FF01AA23E9F080912B0195
:100DA000E0913101F0913201E80FF11DA150A093C3
:100DB000FF01B0E0A050BE4F8C91808380912B0149
:100DC0008F5F80932B0190912B0180912D019817BB
:100DD00009F0BCCFB4CF1F910F910895823051F02C
:100DE000882319F4E1ECF0E002C0E9ECF0E0908136
:100DF0009F779083A82FB0E0FD01EE0FFF1F53E017
:100E0000AA0FBB1F5A95E1F7EA0FFB1FEB5EFE4FDF
:100E100071876087682F70E0FB01EE0FFF1F93E082
:100E2000660F771F9A95E1F7E60FF71FEB5EFE4F0F
:100E30001282682F70E0FB01EE0FFF1FA3E0660F28
:100E4000771FAA95E1F7E60FF71FEB5EFE4F44838D
:100E5000482F50E0FA01EE0FFF1F63E0440F551FCB
:100E60006A95E1F7E40FF51FEB5EFE4F25838230B4
:100E7000D9F0282F30E0F901EE0FFF1F43E0220FD9
:100E8000331F4A95E1F7E20FF31FEB5EFE4F9081AF
:100E9000992351F4882319F4E1ECF0E002C0E9EC65
:100EA000F0E0808180688083089521E097CFFDCFB6
:100EB00008951F920F920FB60F920BB60F92112446
:100EC0002F933F934F935F936F937F938F939F9352
:100ED000AF93BF93EF93FF936091C60080E015DE60
:100EE000FF91EF91BF91AF919F918F917F916F9102
:100EF0005F914F913F912F910F900BBE0F900FBEBE
:100F00000F901F9018951F920F920FB60F920BB66D
:100F10000F9211242F933F934F935F936F937F937F
:100F20008F939F93AF93BF93EF93FF936091CE0006
:100F300081E0EBDDFF91EF91BF91AF919F918F9198
:100F40007F916F915F914F913F912F910F900BBEC9
:100F50000F900FBE0F901F901895882319F4E1ECA5
:100F6000F0E002C0E9ECF0E08081806280830895C7
:100F7000882319F4E1ECF0E002C0E9ECF0E08081B4
:100F80008F7D80830895282F30E0F901EE0FFF1F39
:100F900093E0220F331F9A95E1F7E20FF31FEB5E08
:100FA000FE4F268137812115310591F1282F30E040
:100FB000F901EE0FFF1FA3E0220F331FAA95E1F7FF
:100FC000E20FF31FEB5EFE4F4181282F30E0F90165
:100FD000EE0FFF1F63E0220F331F6A95E1F7E20F68
:100FE000F31FEB5EFE4F9381491790F4282F30E0FA
:100FF000F901EE0FFF1F43E0220F331F4A95E1F77F
:10100000E20FF31FEB5EFE4F9081992309F4A5CF09
:10101000AFCF823029F1282F30E0F901EE0FFF1F0A
:1010200053E0220F331F5A95E1F7E20FF31FEB5EF7
:10103000FE4F9081992349F4882319F4E1ECF0E004
:1010400002C0E9ECF0E098E908C0882319F4E1EC6B
:10105000F0E002C0E9ECF0E098E1908394DF78944E
:101060000895882319F0813029F402C080E0D1CF9F
:1010700081E0CFCF0895A0E0B0E0E0E4F8E0E5C281
:10108000D82E7A018B01EDDF8D2D8230F1F0DD203D
:1010900019F4C4ECD0E002C0CCECD0E0C801B70138
:1010A00028EF3FEF4FEF5FEF80D26050734D8E4CD3
:1010B0009E4FA8019701E4E0220F331F441F551FE4
:1010C000EA95D1F795D239832883CDB7DEB7E7E02B
:1010D000D8C2D1CF0895282F30E0F901EE0FFF1FBD
:1010E00073E0220F331F7A95E1F7E20FF31FEB5EF7
:1010F000FE4F468157814115510509F465C0282FDF
:1011000030E0F901EE0FFF1F93E0220F331F9A9595
:10111000E1F7E20FF31FEB5EFE4F6181282F30E015
:10112000F901EE0FFF1FA3E0220F331FAA95E1F78D
:10113000E20FF31FEB5EFE4F9381691708F044C086
:10114000882319F4E0ECF0E002C0E8ECF0E09081D4
:1011500095FF3AC0882319F4A6ECB0E002C0AEECCB
:10116000B0E0282F30E0F901EE0FFF1F63E0220FFF
:10117000331F6A95E1F7E20FF31FEB5EFE4F91819B
:10118000490F511DFA0190819C93282F30E0F901FD
:10119000EE0FFF1F93E0220F331F9A95E1F7E20F46
:1011A000F31FEB5EFE4F91819F5F282F30E0F90126
:1011B000EE0FFF1FA3E0220F331FAA95E1F7E20F06
:1011C000F31FEB5EFE4F9183DECE1F93182F82300C
:1011D00021F0CEDE812F7FDF1CC080912F01909106
:1011E00030010097B1F030912A0120912C01321783
:1011F00080F406C080912A018F5F80932A01EDCF91
:1012000020912A01820F911DFC0180816ED18823DB
:1012100089F71F91089580E0D8DF81E0D6DF82E072
:10122000D4DF80E019DD81E017DD82E015CDF3CF5A
:101230000895282F30E0F901EE0FFF1F93E0220FF1
:10124000331F9A95E1F7E20FF31FEB5EFE4F7783B2
:101250006683282F30E0F901EE0FFF1FA3E0220F75
:10126000331FAA95E1F7E20FF31FEB5EFE4F1182E9
:10127000282F30E0F901EE0FFF1F63E0220F331F2C
:101280006A95E1F7E20FF31FEB5EFE4F4383823076
:1012900009F079CE0895CDCF08951F920F920FB621
:1012A0000F920BB60F9211242F933F934F935F939E
:1012B0006F937F938F939F93AF93BF93EF93FF931E
:1012C00080E009DFFF91EF91BF91AF919F918F91E6
:1012D0007F916F915F914F913F912F910F900BBE36
:1012E0000F900FBE0F901F9018951F920F920FB680
:1012F0000F920BB60F9211242F933F934F935F934E
:101300006F937F938F939F93AF93BF93EF93FF93CD
:1013100081E0E1DEFF91EF91BF91AF919F918F91BD
:101320007F916F915F914F913F912F910F900BBEE5
:101330000F900FBE0F901F9018956F9364E06A9501
:10134000F1F76F910197C9F708952F928F939F93AB
:101350002FB68091090290910A02019680930902AA
:1013600090930A0290E080910B02891F80930B02F8
:10137000909111029C5F9093110280911002805114
:101380009742C0F0909311028093100280910C025A
:1013900090910D02019680930C0290930D0290E0C3
:1013A00080910E02891F80930E0280910F02891F87
:1013B00080930F022FBE9F918F912F9018950F93BE
:1013C0001F936F5F7F4F8F4F9F4F660F771F881F51
:1013D000991F25E030E040E050E00AD1B901CA0190
:1013E0001F910F910895CF93DF93EC0104C088EE15
:1013F00093E0A3DF21972097D1F7DF91CF91089554
:10140000F2CF0895E0E7F0E080818E7F8083A0EB4B
:10141000B0E08C9183608C93A1EBB0E08C91807FE5
:101420008C938C9182608C93B89A80818160808348
:101430007894089580911202882321F481E08093AA
:101440001202E0CF0895F6DFE0E7F0E080818E7FC2
:10145000808320910C0230910D0240910E02509138
:101460000F02808181608083B901CA010895EBCFAA
:101470000895E0DF809170008E7F8093700020914E
:10148000B2008091080290910902A0910A02B091E5
:101490000B02B89904C030E040E050E011C08091E8
:1014A000B200209108023091090240910A02509145
:1014B0000B0220503F4F4F4F5F4F90E0A0E0B0E055
:1014C000282B392B4A2B5B2B8091700081608093F5
:1014D0007000B901CA010895CCCF08958FEF64E080
:1014E00041C083E867E03ED0F9CF1F93182F982FB3
:1014F0009095991F9927991F85E8891B65E032D03F
:10150000812F8F7765E02ED01F9108956F9364E04F
:101510006A95F1F76F910197C9F70895A1E0B0E0DE
:10152000E3E9FAE096C0182F249908C02C9906C068
:101530002C9A8EE190E06983E9DF698184B1806A49
:1015400084B92698812F837080656C7A862B8CBD38
:1015500081E012FF80E08DBD81E090E044DF2196C4
:10156000E3E093C00F931F93082F162F0CB406FCD3
:1015700003C080E064E0D2DF0CB404FC03C08CB58F
:1015800080618CBD0EBD03C00CB404FE0AC00DB456
:1015900007FEFACF112319F0812F90E0B7DF8EB547
:1015A00001C080E01F910F910895DB018F939F93FD
:1015B00078D0BF91AF91A29F800D911DA39F900DF8
:1015C000B29F900D11240895AA1BBB1B51E107C0C7
:1015D000AA1FBB1FA617B70710F0A61BB70B881FC3
:1015E000991F5A95A9F780959095BC01CD01089552
:1015F000A1E21A2EAA1BBB1BFD010DC0AA1FBB1F17
:10160000EE1FFF1FA217B307E407F50720F0A21B88
:10161000B30BE40BF50B661F771F881F991F1A94F5
:1016200069F760957095809590959B01AC01BD011F
:10163000CF0108952F923F924F925F926F927F92C7
:101640008F929F92AF92BF92CF92DF92EF92FF92D2
:101650000F931F93CF93DF93CDB7DEB7CA1BDB0B7E
:101660000FB6F894DEBF0FBECDBF09942A88398823
:1016700048885F846E847D848C849B84AA84B9842A
:10168000C884DF80EE80FD800C811B81AA81B98136
:10169000CE0FD11D0FB6F894DEBF0FBECDBFED014A
:1016A000089509D0A59F900DB49F900DA49F800D23
:1016B000911D11240895A29FB001B39FC001A39F63
:1016C000700D811D1124911DB29F700D811D11247B
:1016D000911D0895FB01DC0102C005900D9241505F
:1016E0005040D8F708950F931F93CF93DF93CDB752
:1016F000DEB72E970FB6F894DEBF0FBECDBF0D89B3
:101700001E898F89988D26E02C831A83098397FF81
:1017100002C080E090E801979E838D83AE01455E14
:101720005F4F698D7A8DCE01019619D04D815E8112
:1017300057FD0AC02F813885421753070CF49A01D0
:10174000F801E20FF31F10822E960FB6F894DEBF59
:101750000FBECDBFDF91CF911F910F9108952F92B2
:101760003F924F925F926F927F928F929F92AF9231
:10177000BF92CF92DF92EF92FF920F931F93CF937E
:10178000DF93CDB7DEB72C970FB6F894DEBF0FBE50
:10179000CDBF7C016B018A01FC0117821682838117
:1017A00081FFB0C1CE0101964C01F7019381F60192
:1017B00093FD859193FF81916F01882309F49EC168
:1017C000853239F493FD859193FF81916F018532C4
:1017D00021F4B70190E0C7D1E8CF512C312C20E0A3
:1017E0002032A0F48B3269F030F4803259F0833229
:1017F00069F420612CC08D3239F0803339F42160D6
:1018000026C02260246023C0286021C027FD27C095
:1018100030ED380F3A3078F426FF06C0FAE05F9ECC
:10182000300D1124532E13C08AE0389E300D112440
:10183000332E20620CC08E3221F426FD5FC120645D
:1018400006C08C3611F4206802C0883641F4F601D7
:1018500093FD859193FF81916F018111C1CF982FE5
:101860009F7D9554933028F40C5F1F4FFFE3F9835D
:101870000DC0833631F0833771F0833509F057C0DE
:1018800021C0F801808189830E5F1F4F4424439457
:10189000512C540114C03801F2E06F0E711CF80194
:1018A000A080B18026FF03C0652D70E002C06FEFFD
:1018B0007FEFC5012C874CD12C0183012C852F771C
:1018C000222E16C03801F2E06F0E711CF801A080C4
:1018D000B18026FF03C0652D70E002C06FEF7FEF7F
:1018E000C5012C872AD12C012C852068222E83014A
:1018F00023FC19C0832D90E048165906A0F4B701C7
:1019000080E290E030D13A94F5CFF50127FC859143
:1019100027FE81915F01B70190E025D131103A9403
:10192000F1E04F1A51084114510479F7DEC08436B2
:1019300011F0893631F5F80127FF07C06081718108
:10194000828193810C5F1F4F08C06081718188275D
:1019500077FD8095982F0E5F1F4F2F76B22E97FF41
:1019600009C090958095709561957F4F8F4F9F4FDF
:101970002068B22E2AE030E0A40127D1A82EA818B2
:1019800043C0853729F42F7EB22E2AE030E025C0EF
:10199000F22FF97FBF2E8F36C1F018F4883579F019
:1019A000ADC0803719F0883721F0A8C02F2F2061F3
:1019B000B22EB4FE0DC08B2D8460B82E09C024FF5A
:1019C0000AC09F2F9660B92E06C028E030E005C0FF
:1019D00020E130E002C020E132E0F801B7FE07C0AC
:1019E00060817181828193810C5F1F4F06C060818D
:1019F000718180E090E00E5F1F4FA401E6D0A82E19
:101A0000A818FB2DFF77BF2EB6FE0BC02B2D2E7F07
:101A1000A51450F4B4FE0AC0B2FC08C02B2D2E7ED3
:101A200005C07A2C2B2D03C07A2C01C0752C24FF05
:101A30000DC0FE01EA0DF11D8081803311F4297E75
:101A400009C022FF06C07394739404C0822F867865
:101A500009F0739423FD12C020FF06C05A2C7314A2
:101A600018F4530C5718732C731460F4B70180E208
:101A700090E02C8778D073942C85F6CF731410F4F3
:101A8000371801C0312C24FF11C0B70180E390E06A
:101A90002C8769D02C8522FF16C021FF03C088E562
:101AA00090E002C088E790E0B7010CC0822F8678F2
:101AB00051F021FD02C080E201C08BE227FD8DE2E2
:101AC000B70190E050D0A51430F4B70180E390E066
:101AD0004AD05A94F8CFAA94F401EA0DF11D8081FE
:101AE000B70190E040D0A110F6CF332009F45DCECD
:101AF000B70180E290E037D03A94F7CFF7018681C2
:101B0000978102C08FEF9FEF2C960FB6F894DEBF3F
:101B10000FBECDBFDF91CF911F910F91FF90EF903E
:101B2000DF90CF90BF90AF909F908F907F906F90FD
:101B30005F904F903F902F900895FC010590615069
:101B400070400110D8F7809590958E0F9F1F0895D3
:101B5000FC016150704001900110D8F7809590957C
:101B60008E0F9F1F08950F931F93CF93DF93182F0E
:101B7000092FEB018B8181FD03C08FEF9FEF20C008
:101B800082FF10C04E815F812C813D814217530737
:101B90007CF4E881F9819F012F5F3F4F39832883CF
:101BA000108306C0E885F985812F0995892B29F7CF
:101BB0002E813F812F5F3F4F3F832E83812F902FB8
:101BC000DF91CF911F910F910895FA01AA27283034
:101BD00051F1203181F1E8946F936E7F6E5F7F4FFA
:101BE0008F4F9F4FAF4FB1E03ED0B4E03CD0670F76
:101BF000781F891F9A1FA11D680F791F8A1F911DC9
:101C0000A11D6A0F711D811D911DA11D20D009F418
:101C100068943F912AE0269F11243019305D31935A
:101C2000DEF6CF010895462F4770405D4193B3E043
:101C30000FD0C9F7F6CF462F4F70405D4A3318F0EA
:101C4000495D31FD4052419302D0A9F7EACFB4E09B
:101C5000A6959795879577956795BA95C9F7009753
:101C60006105710508959B01AC010A2E06945795F4
:101C7000479537952795BA95C9F7620F731F841F4B
:0A1C8000951FA01D0895F894FFCFF2
:101C8A0001020050C3F401F4010000F40100003223
:101C9A000000000210000000000000000000000028
:101CAA000000000000000000000100000000000029
:101CBA00000000FFFFFFFFFFFFFFFF0000570220A9
:101CCA000052583A200068656C7020746578740078
:101CDA002B206C6564206F6E652074696D65202504
:101CEA006C750D0A002B206C65642074776F207464
:101CFA00696D6520256C750D0A002B2054696D6588
:101D0A0021002D2054696D6521002D206C65642009
:101D1A006F6E652074696D6520256C750D0A002D3E
:101D2A00206C65642074776F2074696D6520256C5A
:101D3A00750D0A0054583A200053656E6420736585
:101D4A007269616C006F7220707265737320420051
:0E1D5A0054696D6520256C752075730D0A00A7
:00000001FF
